S017000074656D7073656E736F725F746573742E737265639E
S11300000C9448000C9465000C9465000C946500F5
S11300100C9465000C9465000C9465000C946500C8
S11300200C946D020C9465000C9465000C946500AE
S11300300C9465000C9465000C9465000C946500A8
S11300400C9465000C9465000C9465000C94650098
S11300500C9465000C9465000C9465000C94650088
S11300600C94A6020C9465000C944C010C94200191
S11300700C9465000C9498020C9465000C94650033
S11300800C9465000C9465000C94D1020C946500EA
S113009011241FBECFEFCDBFDFE7DEBF10E6A0E027
S11300A0B0E6E0E3FCE002C005900D92A430B10795
S11300B0D9F720E6A4E0B0E601C01D92AC31B20746
S11300C0E1F70E9486000C9416060C940000E0E010
S11300D0F1E12681378136952795A481B581AA0F50
S11300E0BB1F281B390B0E942F03DC01CB01985F37
S11300F0AF4FBF4F072E7CE0B595A7959795879591
S11301007A95D1F7702D8151914008950E941C0376
S113011082E40E941401EC018BE10E941401382E48
S1130120292E87E00E941401582E492E80E10E9456
S11301301401782E692E82E10E941401982E892ED2
S113014083E10E941401B82EA92E84E10E941401B7
S1130150D82EC92E85E10E941401F82EE92ECE0175
S11301600E946700182F092F2F923F92C0E0D0E61B
S1130170DF93CF930E943E034F925F92DF93CF931E
S11301800E943E036F927F92DF93CF930E943E03BF
S11301908F929F92DF93CF930E943E03AF92BF92C0
S11301A0DF93CF930E943E03CF92DF92DF93CF93EE
S11301B00E943E03EF92FF92DF93CF930E943E038F
S11301C00F931F93DF93CF930E943E038DB79EB787
S11301D080968DBF9EBF9CCFE0E0F6E01182128234
S11301E080E48383148216861386148692E49087AF
S11301F081878DE185838FEF9FE0848B958B128AB5
S1130200138A81E0808380E00895E0E0F6E080874F
S113021081E08287089580910D0681700895809110
S113022010069091110608950E9405010E940B0189
S11302308823E1F30E940F0121E020930D06089525
S11302401F920F920FB60F9211242F933F934F9347
S11302505F936F937F938F939F93AF93BF93EF932A
S1130260FF9382E080930D06E0910660F0910760B1
S1130270309709F00995FF91EF91BF91AF919F914C
S11302808F917F916F915F914F913F912F910F903B
S11302900FBE0F901F9018951F920F920FB60F92DA
S11302A011242F933F934F935F936F937F938F9377
S11302B09F93AF93BF93EF93FF9381E080930D06D9
S11302C0E0910460F0910560309709F00995FF9181
S11302D0EF91BF91AF919F918F917F916F915F91BA
S11302E04F913F912F910F900FBE0F901F90189533
S11302F040E068ED80E690E00E94180340E068ED7D
S113030081E690E00E94180340E068ED85E690E005
S11303100E94180340E068ED88E790E00E9418030B
S113032044E068ED88E690E00E94180340E068ED40
S113033089E690E00E94180340E068ED80E790E0D1
S11303400E94180340E068ED8CE790E00E941803D7
S113035040E068ED82E690E00E94180340E068ED1A
S113036083E690E00E94180340E068ED84E690E0A4
S11303700E94180340E068ED80E890E00E941803B2
S11303808091650081FFFCCF089540E068ED80E135
S113039091E00E941803E0E1F1E01282138280E010
S11303A00895089508950895089508950895089561
S11303B080931460909315600895809312609093D5
S11303C01360089580931060909311600895809352
S11303D00E6090930F60089580930C6090930D606D
S11303E0089580930A6090930B6008958093086049
S11303F0909309600895CF93DF9380E094E0FC012B
S11304001082C0E4D4E01882A0E6B4E01C9220EA92
S113041034E0F9011082FC0114821C8214961C92AF
S11304201497F9011482FC01108A118A128A138A22
S1130430148A158A168A178A188A198A1A8A1B8AAC
S11304401C8A1D8A1E8A1F8A50961C9250975196A8
S11304501C92519752961C92529753961C92539702
S113046054961C92549755961C92559756961C92E6
S1130470569757961C92F901108A118A128A138A88
S1130480148A158A168A178AE0EEF5E01182108222
S113049015821782108611861682128281ED91E0F0
S11304A00E94D80182ED91E00E94DD0183ED91E08C
S11304B00E94E20184ED91E00E94E70185ED91E064
S11304C00E94EC0186ED91E00E94F10187ED91E03C
S11304D00E94F601DF91CF9108951F920F920FB6FB
S11304E00F9211242F933F934F935F936F937F93B6
S11304F08F939F93AF93BF93EF93FF931F9B05C07D
S1130500E0911460F091156009958FEF83B9FF9124
S1130510EF91BF91AF919F918F917F916F915F9177
S11305204F913F912F910F900FBE0F901F901895F0
S11305301F920F920FB60F9211248F938FEF8BB9E6
S11305408F910F900FBE0F901F9018951F920F92CE
S11305500FB60F9211242F933F934F935F936F9392
S11305607F938F939F93AF93BF93EF93FF937F9B5F
S113057005C0E0911260F091136009958FEF8FB977
S1130580FF91EF91BF91AF919F918F917F916F9167
S11305905F914F913F912F910F900FBE0F901F903D
S11305A018951F920F920FB60F9211242F933F9319
S11305B04F935F936F937F938F939F93AF93BF9367
S11305C0EF93FF93B89B05C0E0911060F091116028
S11305D00995BA9B05C0E0910E60F0910F600995F2
S11305E0BB9B05C0E0910C60F0910D600995BC9B2C
S11305F005C0E0910A60F0910B600995BD9B05C0B0
S1130600E0910860F091096009958FEF87BBFF9135
S1130610EF91BF91AF919F918F917F916F915F9176
S11306204F913F912F910F900FBE0F901F901895EF
S1130630FC0164BF408308950E94FB010E94EC000A
S11306400E9478010E9427030E94C5010895E0EBEF
S1130650F0E0148282E08083128280E00895A29FF9
S1130660B001B39FC001A39F700D811D1124911D82
S1130670B29F700D811D1124911D0895A0E0B0E07A
S1130680E4E4F3E00C94F505AE014B5F5F4FFA012F
S113069061917191AF0180911860909119600E94ED
S11306A05403E2E00C940E06ABE0B0E0EAE5F3E0BC
S11306B00C94E5056C017B018A01FC01168217820A
S11306C0838181FFCCC1CE0101963C01F601938167
S11306D0F70193FD859193FF81917F01882309F4AC
S11306E0BAC1853239F493FD859193FF81917F01DD
S11306F0853229F4B60190E00E944B05E7CF912C96
S1130700212C312CFFE1F315D8F08B3279F038F439
S1130710803279F08332A1F4232D20611DC08D3203
S113072061F0803369F4232D216016C0832D82602B
S1130730382EE32DE4603E2E2AC0F32DF8601DC050
S113074037FC2DC020ED280F2A3040F08E32B9F44A
S113075036FC81C1232D2064322E19C036FE06C01A
S11307608AE0989E200D1124922E11C0EAE02E9E5C
S1130770200D1124222EF32DF0623F2E08C08C365A
S113078021F4832D8068382E02C0883641F4F701A5
S113079093FD859193FF81917F018111B3CF982FB0
S11307A09F7D9554933028F40C5F1F4F9FE39983EA
S11307B00DC0833631F0833771F0833509F059C0A9
S11307C021C0F801808189830E5F1F4F88248394A0
S11307D0912C530113C02801F2E04F0E511CF80173
S11307E0A080B18036FE03C0692D70E002C06FEFB7
S11307F07FEFC5010E9440054C018201F32DFF7774
S11308003F2E16C0280122E0420E511CF801A080A0
S1130810B18036FE03C0692D70E002C06FEF7FEF38
S1130820C5010E9435054C01F32DF0683F2E82016D
S113083033FC1BC0822D90E088169906B0F4B601F3
S113084080E290E00E944B052A94F4CFF50137FC36
S1130850859137FE81915F01B60190E00E944B05BE
S113086021102A9421E0821A91088114910471F7CD
S1130870E8C0843611F0893641F5F80137FE07C027
S113088060817181828193810C5F1F4F08C06081F8
S11308907181072E000C880B990B0E5F1F4FF32DEF
S11308A0FF763F2E97FF09C09095809570956195CE
S11308B07F4F8F4F9F4FF0683F2E2AE030E0A30117
S11308C00E948705882E861845C0853731F4232D6C
S11308D02F7EB22E2AE030E025C0932D997FB92EC9
S11308E08F36C1F018F4883579F0B5C0803719F027
S11308F0883721F0B0C0E92FE061BE2EB4FE0DC0F0
S1130900FB2DF460BF2E09C034FE0AC0292F2660D7
S1130910B22E06C028E030E005C020E130E002C07D
S113092020E132E0F801B7FE07C060817181828165
S113093093810C5F1F4F06C06081718180E090E05D
S11309400E5F1F4FA3010E948705882E8618FB2D7A
S1130950FF773F2E36FE0DC0232D2E7FA22E891445
S113096058F434FE0BC032FC09C0832D8E7EA82EB1
S113097005C0B82CA32C03C0B82C01C0B92CA4FE0C
S11309800FC0FE01E80DF11D8081803321F49A2D02
S1130990997EA92E09C0A2FE06C0B394B39404C0E4
S11309A08A2D867809F0B394A3FC11C0A0FE06C07A
S11309B0B21488F4280C922C9B180EC0B21460F464
S11309C0B60180E290E00E944B05B394F7CFB214D5
S11309D018F42B1802C0982C212CA4FE10C0B601C8
S11309E080E390E00E944B05A2FE17C0A1FC03C067
S11309F088E790E002C088E590E0B6010CC08A2D3B
S1130A00867859F0A1FE02C08BE201C080E2A7FC07
S1130A108DE2B60190E00E944B05891438F4B601CA
S1130A2080E390E00E944B059A94F7CF8A94F301F7
S1130A30E80DF11D8081B60190E00E944B05811004
S1130A40F5CF222009F442CEB60180E290E00E9464
S1130A504B052A94F6CFF6018681978102C08FEF69
S1130A609FEF2B96E2E10C94FE05FC01059061508A
S1130A7070400110D8F7809590958E0F9F1F0895B0
S1130A80FC016150704001900110D8F78095909559
S1130A908E0F9F1F08950F931F93CF93DF93FB0136
S1130AA0238121FD03C08FEF9FEF2CC022FF16C0CE
S1130AB046815781248135814217530744F4A0812C
S1130AC0B1819D012F5F3F4F208331838C93268119
S1130AD037812F5F3F4F2683378314C08B01EC018E
S1130AE0FB010084F185E02D0995892BE1F6D801FD
S1130AF016968D919C911797019616968D939C93BB
S1130B001797CE01DF91CF911F910F910895FA01AC
S1130B10AA27283051F1203181F1E8946F936E7F38
S1130B206E5F7F4F8F4F9F4FAF4FB1E03ED0B4E029
S1130B303CD0670F781F891F9A1FA11D680F791F6A
S1130B408A1F911DA11D6A0F711D811D911DA11D7B
S1130B5020D009F468943F912AE0269F112430198B
S1130B60305D3193DEF6CF010895462F4770405D26
S1130B704193B3E00FD0C9F7F6CF462F4F70405DD5
S1130B804A3318F0495D31FD4052419302D0A9F730
S1130B90EACFB4E0A6959795879577956795BA952A
S1130BA0C9F700976105710508959B01AC010A2EF0
S1130BB006945795479537952795BA95C9F7620FC7
S1130BC0731F841F951FA01D08952F923F924F926B
S1130BD05F926F927F928F929F92AF92BF92CF92C9
S1130BE0DF92EF92FF920F931F93CF93DF93CDB7D2
S1130BF0DEB7CA1BDB0BCDBFDEBF09942A88398858
S1130C0048885F846E847D848C849B84AA84B984A0
S1130C10C884DF80EE80FD800C811B81AA81B981AC
S1130C20CE0FD11DCDBFDEBFED010895F894FFCFE7
S1070C302564000033
S9030000FC
