:100000000C9448000C9465000C9465000C946500F9
:100010000C9465000C9465000C9465000C946500CC
:100020000C94D5010C9465000C9465000C9465004B
:100030000C9465000C9465000C9465000C946500AC
:100040000C9465000C9465000C9465000C9465009C
:100050000C9465000C9465000C9465000C9465008C
:100060000C94F1010C9465000C94FA000C94CE00F1
:100070000C9465000C94E3010C9465000C946500ED
:100080000C9465000C9465000C94FF010C946500C1
:1000900011241FBECFEFCDBFDFE7DEBF10E6A0E02B
:1000A000B0E6EAE1FAE002C005900D92A430B10793
:1000B000D9F720E6A4E0B0E601C01D92AE30B20749
:1000C000E1F70E9486000C940B050C940000E0E020
:1000D000F1E12681378136952795A481B581AA0F54
:1000E000BB1F281B390B0E942402DC01CB01905F4F
:1000F000AF4FBF4F072E7CE0B595A7959795879595
:100100007A95D1F7702D8151914008950E94110286
:1001100082E40E94C2000E9467009F938F9380E058
:1001200090E69F938F930E9433020F900F900F9051
:100130000F90EECFE0E0F6E01182128280E483833C
:10014000148216861386148692E4908781878DE147
:1001500085838FEF9FE0848B958B128A138A81E0D1
:10016000808380E00895E0E0F6E0808781E0828788
:10017000089580910D0681700895809110069091E8
:10018000110608950E94B3000E94B9008823E1F38C
:100190000E94BD0021E020930D0608951F920F924A
:1001A0000FB60F9211242F933F934F935F936F934A
:1001B0007F938F939F93AF93BF93EF93FF9382E0CF
:1001C00080930D06E0910660F0910760309709F08A
:1001D0000995FF91EF91BF91AF919F918F917F9181
:1001E0006F915F914F913F912F910F900FBE0F90A4
:1001F0001F9018951F920F920FB60F9211242F93F4
:100200003F934F935F936F937F938F939F93AF939E
:10021000BF93EF93FF9381E080930D06E09104601C
:10022000F0910560309709F00995FF91EF91BF912A
:10023000AF919F918F917F916F915F914F913F917E
:100240002F910F900FBE0F901F90189540E068ED12
:1002500080E690E00E940D0240E068ED81E690E0CB
:100260000E940D0240E068ED85E690E00E940D02DC
:1002700040E068ED88E790E00E940D0244E068ED00
:1002800088E690E00E940D0240E068ED89E690E08B
:100290000E940D0240E068ED80E790E00E940D02B0
:1002A00040E068ED8CE790E00E940D0240E068EDD0
:1002B00082E690E00E940D0240E068ED83E690E067
:1002C0000E940D0240E068ED84E690E00E940D027D
:1002D00040E068ED80E890E00E940D0280916500AA
:1002E00081FFFCCF089540E068ED80E191E00E943D
:1002F0000D02E0E1F1E01282138280E00895CF93D5
:10030000DF9380E094E0FC011082C0E4D4E0188226
:10031000A0E6B4E01C9220EA34E0F9011082FC016E
:1003200014821C8214961C921497F9011482FC0109
:10033000108A118A128A138A148A158A168A178AD1
:10034000188A198A1A8A1B8A1C8A1D8A1E8A1F8A81
:1003500050961C92509751961C92519752961C920F
:10036000529753961C92539754961C9254975596B5
:100370001C92559756961C92569757961C92F901C7
:10038000108A118A128A138A148A158A168A178A81
:10039000E0EEF5E011821082158217821086118638
:1003A00016821282DF91CF9108951F920F920FB69D
:1003B0000F9211248F938FEF83B98F910F900FBEFF
:1003C0000F901F9018951F920F920FB60F92112445
:1003D0008F938FEF8BB98F910F900FBE0F901F905F
:1003E00018951F920F920FB60F9211248F938FEFD3
:1003F0008FB98F910F900FBE0F901F9018951F927D
:100400000F920FB60F9211248F938FEF87BB8F91AE
:100410000F900FBE0F901F901895FC0164BF408392
:1004200008950E947F010E949A000E9426010E9466
:100430001C020E9473010895E0EBF0E0148282E058
:100440008083128280E00895A29FB001B39FC00113
:10045000A39F700D811D1124911DB29F700D811DF0
:100460001124911D0895A0E0B0E0E9E3F2E00C94BE
:10047000EA04AE014B5F5F4FFA0161917191AF01E8
:1004800080910A6090910B600E944902E2E00C9416
:100490000305ABE0B0E0EFE4F2E00C94DA046C01A9
:1004A0007B018A01FC0116821782838181FFCCC106
:1004B000CE0101963C01F6019381F70193FD8591F0
:1004C00093FF81917F01882309F4BAC1853239F401
:1004D00093FD859193FF81917F01853229F4B601C7
:1004E00090E00E944004E7CF912C212C312CFFE1B9
:1004F000F315D8F08B3279F038F4803279F083320A
:10050000A1F4232D20611DC08D3261F0803369F488
:10051000232D216016C0832D8260382EE32DE460E8
:100520003E2E2AC0F32DF8601DC037FC2DC020EDF3
:10053000280F2A3040F08E32B9F436FC81C1232DC9
:100540002064322E19C036FE06C08AE0989E200D27
:100550001124922E11C0EAE02E9E200D1124222E8D
:10056000F32DF0623F2E08C08C3621F4832D806875
:10057000382E02C0883641F4F70193FD859193FF30
:1005800081917F018111B3CF982F9F7D9554933036
:1005900028F40C5F1F4F9FE399830DC0833631F021
:1005A000833771F0833509F059C021C0F80180818B
:1005B00089830E5F1F4F88248394912C530113C0AD
:1005C0002801F2E04F0E511CF801A080B18036FEE8
:1005D00003C0692D70E002C06FEF7FEFC5010E947C
:1005E00035044C018201F32DFF773F2E16C0280100
:1005F00022E0420E511CF801A080B18036FE03C0FB
:10060000692D70E002C06FEF7FEFC5010E942A04E0
:100610004C01F32DF0683F2E820133FC1BC0822D6C
:1006200090E088169906B0F4B60180E290E00E944E
:1006300040042A94F4CFF50137FC859137FE81916F
:100640005F01B60190E00E94400421102A9421E04D
:10065000821A91088114910471F7E8C0843611F070
:10066000893641F5F80137FE07C0608171818281CA
:1006700093810C5F1F4F08C060817181072E000CB1
:10068000880B990B0E5F1F4FF32DFF763F2E97FFC0
:1006900009C090958095709561957F4F8F4F9F4FC2
:1006A000F0683F2E2AE030E0A3010E947C04882EEF
:1006B000861845C0853731F4232D2F7EB22E2AE0CF
:1006C00030E025C0932D997FB92E8F36C1F018F4F4
:1006D000883579F0B5C0803719F0883721F0B0C07F
:1006E000E92FE061BE2EB4FE0DC0FB2DF460BF2EDD
:1006F00009C034FE0AC0292F2660B22E06C028E0A9
:1007000030E005C020E130E002C020E132E0F80135
:10071000B7FE07C060817181828193810C5F1F4F9A
:1007200006C06081718180E090E00E5F1F4FA301E1
:100730000E947C04882E8618FB2DFF773F2E36FE04
:100740000DC0232D2E7FA22E891458F434FE0BC029
:1007500032FC09C0832D8E7EA82E05C0B82CA32C98
:1007600003C0B82C01C0B92CA4FE0FC0FE01E80DD7
:10077000F11D8081803321F49A2D997EA92E09C024
:10078000A2FE06C0B394B39404C08A2D867809F003
:10079000B394A3FC11C0A0FE06C0B21488F4280CC8
:1007A000922C9B180EC0B21460F4B60180E290E067
:1007B0000E944004B394F7CFB21418F42B1802C06F
:1007C000982C212CA4FE10C0B60180E390E00E947A
:1007D0004004A2FE17C0A1FC03C088E790E002C05D
:1007E00088E590E0B6010CC08A2D867859F0A1FE0C
:1007F00002C08BE201C080E2A7FC8DE2B60190E06E
:100800000E944004891438F4B60180E390E00E940D
:1008100040049A94F7CF8A94F301E80DF11D80818A
:10082000B60190E00E9440048110F5CF222009F427
:1008300042CEB60180E290E00E9440042A94F6CFB6
:10084000F6018681978102C08FEF9FEF2B96E2E140
:100850000C94F304FC010590615070400110D8F72E
:10086000809590958E0F9F1F0895FC0161507040F8
:1008700001900110D8F7809590958E0F9F1F0895D5
:100880000F931F93CF93DF93FB01238121FD03C0BF
:100890008FEF9FEF2CC022FF16C046815781248125
:1008A00035814217530744F4A081B1819D012F5F28
:1008B0003F4F208331838C93268137812F5F3F4FB9
:1008C0002683378314C08B01EC01FB010084F18582
:1008D000E02D0995892BE1F6D80116968D919C9112
:1008E0001797019616968D939C931797CE01DF91DB
:1008F000CF911F910F910895FA01AA27283051F145
:10090000203181F1E8946F936E7F6E5F7F4F8F4F40
:100910009F4FAF4FB1E03ED0B4E03CD0670F781F9F
:10092000891F9A1FA11D680F791F8A1F911DA11D84
:100930006A0F711D811D911DA11D20D009F46894BD
:100940003F912AE0269F11243019305D3193DEF665
:10095000CF010895462F4770405D4193B3E00FD01B
:10096000C9F7F6CF462F4F70405D4A3318F0495D06
:1009700031FD4052419302D0A9F7EACFB4E0A695E9
:100980009795879577956795BA95C9F7009761050B
:10099000710508959B01AC010A2E06945795479561
:1009A00037952795BA95C9F7620F731F841F951F56
:1009B000A01D08952F923F924F925F926F927F9267
:1009C0008F929F92AF92BF92CF92DF92EF92FF925F
:1009D0000F931F93CF93DF93CDB7DEB7CA1BDB0B0B
:1009E000CDBFDEBF09942A88398848885F846E8429
:1009F0007D848C849B84AA84B984C884DF80EE8043
:100A0000FD800C811B81AA81B981CE0FD11DCDBF84
:0A0A1000DEBFED010895F894FFCF5A
:040A1A00256400004F
:00000001FF
